{
  "_format": "hh-sol-artifact-1",
  "contractName": "RegistroDeUsuariosComRecompensa",
  "sourceName": "contracts/RegistroDeUsuariosComRecompensa.sol",
  "abi": [
    {
      "inputs": [],
      "stateMutability": "nonpayable",
      "type": "constructor"
    },
    {
      "anonymous": false,
      "inputs": [
        {
          "indexed": true,
          "internalType": "address",
          "name": "carteira",
          "type": "address"
        },
        {
          "indexed": false,
          "internalType": "uint256",
          "name": "valor",
          "type": "uint256"
        }
      ],
      "name": "RecompensaEnviada",
      "type": "event"
    },
    {
      "anonymous": false,
      "inputs": [
        {
          "indexed": true,
          "internalType": "address",
          "name": "carteira",
          "type": "address"
        },
        {
          "indexed": false,
          "internalType": "string",
          "name": "nome",
          "type": "string"
        },
        {
          "indexed": false,
          "internalType": "uint256",
          "name": "timestamp",
          "type": "uint256"
        }
      ],
      "name": "UsuarioRegistrado",
      "type": "event"
    },
    {
      "inputs": [],
      "name": "VALOR_RECOMPENSA_PADRAO",
      "outputs": [
        {
          "internalType": "uint256",
          "name": "",
          "type": "uint256"
        }
      ],
      "stateMutability": "view",
      "type": "function"
    },
    {
      "inputs": [
        {
          "internalType": "address",
          "name": "carteira",
          "type": "address"
        }
      ],
      "name": "consultarUsuario",
      "outputs": [
        {
          "internalType": "string",
          "name": "nome",
          "type": "string"
        },
        {
          "internalType": "bool",
          "name": "registrado",
          "type": "bool"
        },
        {
          "internalType": "uint256",
          "name": "dataRegistro",
          "type": "uint256"
        },
        {
          "internalType": "uint256",
          "name": "saldo",
          "type": "uint256"
        }
      ],
      "stateMutability": "view",
      "type": "function"
    },
    {
      "inputs": [],
      "name": "dono",
      "outputs": [
        {
          "internalType": "address",
          "name": "",
          "type": "address"
        }
      ],
      "stateMutability": "view",
      "type": "function"
    },
    {
      "inputs": [
        {
          "internalType": "address",
          "name": "carteira",
          "type": "address"
        }
      ],
      "name": "recompensarUsuario",
      "outputs": [],
      "stateMutability": "nonpayable",
      "type": "function"
    },
    {
      "inputs": [
        {
          "internalType": "string",
          "name": "nome",
          "type": "string"
        }
      ],
      "name": "registrarUsuario",
      "outputs": [],
      "stateMutability": "nonpayable",
      "type": "function"
    },
    {
      "inputs": [
        {
          "internalType": "address",
          "name": "",
          "type": "address"
        }
      ],
      "name": "saldosToken",
      "outputs": [
        {
          "internalType": "uint256",
          "name": "",
          "type": "uint256"
        }
      ],
      "stateMutability": "view",
      "type": "function"
    },
    {
      "inputs": [
        {
          "internalType": "address",
          "name": "",
          "type": "address"
        }
      ],
      "name": "usuarios",
      "outputs": [
        {
          "internalType": "string",
          "name": "nome",
          "type": "string"
        },
        {
          "internalType": "bool",
          "name": "registrado",
          "type": "bool"
        },
        {
          "internalType": "uint256",
          "name": "dataRegistro",
          "type": "uint256"
        }
      ],
      "stateMutability": "view",
      "type": "function"
    }
  ],
  "bytecode": "0x608060405234801561001057600080fd5b5033600260006101000a81548173ffffffffffffffffffffffffffffffffffffffff021916908373ffffffffffffffffffffffffffffffffffffffff1602179055506111f9806100616000396000f3fe608060405234801561001057600080fd5b506004361061007d5760003560e01c8063ada4823a1161005b578063ada4823a146100ee578063bff592911461010a578063cd4205bd14610126578063f6b91ea9146101595761007d565b806306631e691461008257806360c5511f146100a057806370514bea146100d0575b600080fd5b61008a61018b565b6040516100979190610879565b60405180910390f35b6100ba60048036038101906100b59190610906565b610190565b6040516100c79190610879565b60405180910390f35b6100d86101a8565b6040516100e59190610942565b60405180910390f35b61010860048036038101906101039190610906565b6101ce565b005b610124600480360381019061011f9190610aa3565b610404565b005b610140600480360381019061013b9190610906565b6105c9565b6040516101509493929190610b86565b60405180910390f35b610173600480360381019061016e9190610906565b6107a1565b60405161018293929190610bd2565b60405180910390f35b606481565b60016020528060005260406000206000915090505481565b600260009054906101000a900473ffffffffffffffffffffffffffffffffffffffff1681565b600260009054906101000a900473ffffffffffffffffffffffffffffffffffffffff1673ffffffffffffffffffffffffffffffffffffffff163373ffffffffffffffffffffffffffffffffffffffff161461025e576040517f08c379a000000000000000000000000000000000000000000000000000000000815260040161025590610c82565b60405180910390fd5b600073ffffffffffffffffffffffffffffffffffffffff168173ffffffffffffffffffffffffffffffffffffffff16036102cd576040517f08c379a00000000000000000000000000000000000000000000000000000000081526004016102c490610cee565b60405180910390fd5b6000808273ffffffffffffffffffffffffffffffffffffffff1673ffffffffffffffffffffffffffffffffffffffff16815260200190815260200160002060010160009054906101000a900460ff1661035b576040517f08c379a000000000000000000000000000000000000000000000000000000000815260040161035290610d5a565b60405180910390fd5b6064600160008373ffffffffffffffffffffffffffffffffffffffff1673ffffffffffffffffffffffffffffffffffffffff16815260200190815260200160002060008282546103ab9190610da9565b925050819055508073ffffffffffffffffffffffffffffffffffffffff167f1bcb563f06dfe2f58c91fdc16d032cde9d4c33a28fdb436a8396445c36b07e1260646040516103f99190610879565b60405180910390a250565b6000815111610448576040517f08c379a000000000000000000000000000000000000000000000000000000000815260040161043f90610e29565b60405180910390fd5b6000803373ffffffffffffffffffffffffffffffffffffffff1673ffffffffffffffffffffffffffffffffffffffff16815260200190815260200160002060010160009054906101000a900460ff16156104d7576040517f08c379a00000000000000000000000000000000000000000000000000000000081526004016104ce90610e95565b60405180910390fd5b6040518060600160405280828152602001600115158152602001428152506000803373ffffffffffffffffffffffffffffffffffffffff1673ffffffffffffffffffffffffffffffffffffffff168152602001908152602001600020600082015181600001908161054891906110c1565b5060208201518160010160006101000a81548160ff021916908315150217905550604082015181600201559050503373ffffffffffffffffffffffffffffffffffffffff167f6b80d365f3ebb979d1707dbcc963d39e49752795929a8052289499c37e74168382426040516105be929190611193565b60405180910390a250565b606060008060008073ffffffffffffffffffffffffffffffffffffffff168573ffffffffffffffffffffffffffffffffffffffff160361063e576040517f08c379a000000000000000000000000000000000000000000000000000000000815260040161063590610cee565b60405180910390fd5b60008060008773ffffffffffffffffffffffffffffffffffffffff1673ffffffffffffffffffffffffffffffffffffffff16815260200190815260200160002060405180606001604052908160008201805461069990610ee4565b80601f01602080910402602001604051908101604052809291908181526020018280546106c590610ee4565b80156107125780601f106106e757610100808354040283529160200191610712565b820191906000526020600020905b8154815290600101906020018083116106f557829003601f168201915b505050505081526020016001820160009054906101000a900460ff161515151581526020016002820154815250509050806000015181602001518260400151600160008a73ffffffffffffffffffffffffffffffffffffffff1673ffffffffffffffffffffffffffffffffffffffff168152602001908152602001600020549450945094509450509193509193565b60006020528060005260406000206000915090508060000180546107c490610ee4565b80601f01602080910402602001604051908101604052809291908181526020018280546107f090610ee4565b801561083d5780601f106108125761010080835404028352916020019161083d565b820191906000526020600020905b81548152906001019060200180831161082057829003601f168201915b5050505050908060010160009054906101000a900460ff16908060020154905083565b6000819050919050565b61087381610860565b82525050565b600060208201905061088e600083018461086a565b92915050565b6000604051905090565b600080fd5b600080fd5b600073ffffffffffffffffffffffffffffffffffffffff82169050919050565b60006108d3826108a8565b9050919050565b6108e3816108c8565b81146108ee57600080fd5b50565b600081359050610900816108da565b92915050565b60006020828403121561091c5761091b61089e565b5b600061092a848285016108f1565b91505092915050565b61093c816108c8565b82525050565b60006020820190506109576000830184610933565b92915050565b600080fd5b600080fd5b6000601f19601f8301169050919050565b7f4e487b7100000000000000000000000000000000000000000000000000000000600052604160045260246000fd5b6109b082610967565b810181811067ffffffffffffffff821117156109cf576109ce610978565b5b80604052505050565b60006109e2610894565b90506109ee82826109a7565b919050565b600067ffffffffffffffff821115610a0e57610a0d610978565b5b610a1782610967565b9050602081019050919050565b82818337600083830152505050565b6000610a46610a41846109f3565b6109d8565b905082815260208101848484011115610a6257610a61610962565b5b610a6d848285610a24565b509392505050565b600082601f830112610a8a57610a8961095d565b5b8135610a9a848260208601610a33565b91505092915050565b600060208284031215610ab957610ab861089e565b5b600082013567ffffffffffffffff811115610ad757610ad66108a3565b5b610ae384828501610a75565b91505092915050565b600081519050919050565b600082825260208201905092915050565b60005b83811015610b26578082015181840152602081019050610b0b565b60008484015250505050565b6000610b3d82610aec565b610b478185610af7565b9350610b57818560208601610b08565b610b6081610967565b840191505092915050565b60008115159050919050565b610b8081610b6b565b82525050565b60006080820190508181036000830152610ba08187610b32565b9050610baf6020830186610b77565b610bbc604083018561086a565b610bc9606083018461086a565b95945050505050565b60006060820190508181036000830152610bec8186610b32565b9050610bfb6020830185610b77565b610c08604083018461086a565b949350505050565b7f4170656e6173206f20646f6e6f20706f6465207265636f6d70656e736172207560008201527f73756172696f732e000000000000000000000000000000000000000000000000602082015250565b6000610c6c602883610af7565b9150610c7782610c10565b604082019050919050565b60006020820190508181036000830152610c9b81610c5f565b9050919050565b7f436172746569726120696e76616c6964612e0000000000000000000000000000600082015250565b6000610cd8601283610af7565b9150610ce382610ca2565b602082019050919050565b60006020820190508181036000830152610d0781610ccb565b9050919050565b7f5573756172696f206e616f207265676973747261646f2e000000000000000000600082015250565b6000610d44601783610af7565b9150610d4f82610d0e565b602082019050919050565b60006020820190508181036000830152610d7381610d37565b9050919050565b7f4e487b7100000000000000000000000000000000000000000000000000000000600052601160045260246000fd5b6000610db482610860565b9150610dbf83610860565b9250828201905080821115610dd757610dd6610d7a565b5b92915050565b7f4e6f6d65206e616f20706f6465207365722076617a696f2e0000000000000000600082015250565b6000610e13601883610af7565b9150610e1e82610ddd565b602082019050919050565b60006020820190508181036000830152610e4281610e06565b9050919050565b7f5573756172696f206a61207265676973747261646f2e00000000000000000000600082015250565b6000610e7f601683610af7565b9150610e8a82610e49565b602082019050919050565b60006020820190508181036000830152610eae81610e72565b9050919050565b7f4e487b7100000000000000000000000000000000000000000000000000000000600052602260045260246000fd5b60006002820490506001821680610efc57607f821691505b602082108103610f0f57610f0e610eb5565b5b50919050565b60008190508160005260206000209050919050565b60006020601f8301049050919050565b600082821b905092915050565b600060088302610f777fffffffffffffffffffffffffffffffffffffffffffffffffffffffffffffffff82610f3a565b610f818683610f3a565b95508019841693508086168417925050509392505050565b6000819050919050565b6000610fbe610fb9610fb484610860565b610f99565b610860565b9050919050565b6000819050919050565b610fd883610fa3565b610fec610fe482610fc5565b848454610f47565b825550505050565b600090565b611001610ff4565b61100c818484610fcf565b505050565b5b8181101561103057611025600082610ff9565b600181019050611012565b5050565b601f8211156110755761104681610f15565b61104f84610f2a565b8101602085101561105e578190505b61107261106a85610f2a565b830182611011565b50505b505050565b600082821c905092915050565b60006110986000198460080261107a565b1980831691505092915050565b60006110b18383611087565b9150826002028217905092915050565b6110ca82610aec565b67ffffffffffffffff8111156110e3576110e2610978565b5b6110ed8254610ee4565b6110f8828285611034565b600060209050601f83116001811461112b5760008415611119578287015190505b61112385826110a5565b86555061118b565b601f19841661113986610f15565b60005b828110156111615784890151825560018201915060208501945060208101905061113c565b8683101561117e578489015161117a601f891682611087565b8355505b6001600288020188555050505b505050505050565b600060408201905081810360008301526111ad8185610b32565b90506111bc602083018461086a565b939250505056fea264697066735822122035081839921e2ce4a053a60fa1e6f3ed651d1c6bd9f0f0e382c92280b99b9c1064736f6c63430008180033",
  "linkReferences": {},
  "deployedLinkReferences": {}
}